{
  "_format": "hh-sol-artifact-1",
  "contractName": "SessionManager",
  "sourceName": "SessionManager.sol",
  "abi": [
    {
      "anonymous": false,
      "inputs": [
        {
          "indexed": true,
          "internalType": "address",
          "name": "agent",
          "type": "address"
        },
        {
          "indexed": false,
          "internalType": "bytes",
          "name": "publicKey",
          "type": "bytes"
        }
      ],
      "name": "AgentRegistered",
      "type": "event"
    },
    {
      "anonymous": false,
      "inputs": [
        {
          "indexed": true,
          "internalType": "bytes32",
          "name": "sessionId",
          "type": "bytes32"
        },
        {
          "indexed": true,
          "internalType": "address",
          "name": "sender",
          "type": "address"
        },
        {
          "indexed": false,
          "internalType": "uint256",
          "name": "sequenceNumber",
          "type": "uint256"
        }
      ],
      "name": "MessageSent",
      "type": "event"
    },
    {
      "anonymous": false,
      "inputs": [
        {
          "indexed": true,
          "internalType": "bytes32",
          "name": "sessionId",
          "type": "bytes32"
        },
        {
          "indexed": true,
          "internalType": "address",
          "name": "admin",
          "type": "address"
        },
        {
          "indexed": true,
          "internalType": "address",
          "name": "agent",
          "type": "address"
        }
      ],
      "name": "SessionCreated",
      "type": "event"
    },
    {
      "anonymous": false,
      "inputs": [
        {
          "indexed": true,
          "internalType": "bytes32",
          "name": "sessionId",
          "type": "bytes32"
        }
      ],
      "name": "SessionTerminated",
      "type": "event"
    },
    {
      "inputs": [
        {
          "internalType": "address",
          "name": "",
          "type": "address"
        },
        {
          "internalType": "uint256",
          "name": "",
          "type": "uint256"
        }
      ],
      "name": "adminSessions",
      "outputs": [
        {
          "internalType": "bytes32",
          "name": "",
          "type": "bytes32"
        }
      ],
      "stateMutability": "view",
      "type": "function"
    },
    {
      "inputs": [
        {
          "internalType": "address",
          "name": "",
          "type": "address"
        }
      ],
      "name": "agentPublicKeys",
      "outputs": [
        {
          "internalType": "bytes",
          "name": "",
          "type": "bytes"
        }
      ],
      "stateMutability": "view",
      "type": "function"
    },
    {
      "inputs": [
        {
          "internalType": "address",
          "name": "",
          "type": "address"
        },
        {
          "internalType": "uint256",
          "name": "",
          "type": "uint256"
        }
      ],
      "name": "agentSessions",
      "outputs": [
        {
          "internalType": "bytes32",
          "name": "",
          "type": "bytes32"
        }
      ],
      "stateMutability": "view",
      "type": "function"
    },
    {
      "inputs": [
        {
          "internalType": "address",
          "name": "agent",
          "type": "address"
        }
      ],
      "name": "createSession",
      "outputs": [
        {
          "internalType": "bytes32",
          "name": "",
          "type": "bytes32"
        }
      ],
      "stateMutability": "nonpayable",
      "type": "function"
    },
    {
      "inputs": [
        {
          "internalType": "address",
          "name": "admin",
          "type": "address"
        }
      ],
      "name": "getAdminSessions",
      "outputs": [
        {
          "internalType": "bytes32[]",
          "name": "",
          "type": "bytes32[]"
        }
      ],
      "stateMutability": "view",
      "type": "function"
    },
    {
      "inputs": [
        {
          "internalType": "address",
          "name": "agent",
          "type": "address"
        }
      ],
      "name": "getAgentPublicKey",
      "outputs": [
        {
          "internalType": "bytes",
          "name": "",
          "type": "bytes"
        }
      ],
      "stateMutability": "view",
      "type": "function"
    },
    {
      "inputs": [
        {
          "internalType": "address",
          "name": "agent",
          "type": "address"
        }
      ],
      "name": "getAgentSessions",
      "outputs": [
        {
          "internalType": "bytes32[]",
          "name": "",
          "type": "bytes32[]"
        }
      ],
      "stateMutability": "view",
      "type": "function"
    },
    {
      "inputs": [
        {
          "internalType": "bytes32",
          "name": "sessionId",
          "type": "bytes32"
        }
      ],
      "name": "getMessageCount",
      "outputs": [
        {
          "internalType": "uint256",
          "name": "",
          "type": "uint256"
        }
      ],
      "stateMutability": "view",
      "type": "function"
    },
    {
      "inputs": [
        {
          "internalType": "bytes32",
          "name": "sessionId",
          "type": "bytes32"
        },
        {
          "internalType": "uint256",
          "name": "fromIndex",
          "type": "uint256"
        },
        {
          "internalType": "uint256",
          "name": "count",
          "type": "uint256"
        }
      ],
      "name": "getMessages",
      "outputs": [
        {
          "components": [
            {
              "internalType": "address",
              "name": "sender",
              "type": "address"
            },
            {
              "internalType": "bytes",
              "name": "encryptedPayload",
              "type": "bytes"
            },
            {
              "internalType": "uint256",
              "name": "timestamp",
              "type": "uint256"
            },
            {
              "internalType": "uint256",
              "name": "sequenceNumber",
              "type": "uint256"
            },
            {
              "internalType": "bytes32",
              "name": "sessionId",
              "type": "bytes32"
            }
          ],
          "internalType": "struct SessionManager.Message[]",
          "name": "",
          "type": "tuple[]"
        }
      ],
      "stateMutability": "view",
      "type": "function"
    },
    {
      "inputs": [
        {
          "internalType": "bytes32",
          "name": "sessionId",
          "type": "bytes32"
        }
      ],
      "name": "getSession",
      "outputs": [
        {
          "components": [
            {
              "internalType": "bytes32",
              "name": "sessionId",
              "type": "bytes32"
            },
            {
              "internalType": "address",
              "name": "admin",
              "type": "address"
            },
            {
              "internalType": "address",
              "name": "agent",
              "type": "address"
            },
            {
              "internalType": "bool",
              "name": "active",
              "type": "bool"
            },
            {
              "internalType": "uint256",
              "name": "createdAt",
              "type": "uint256"
            },
            {
              "internalType": "uint256",
              "name": "lastActivity",
              "type": "uint256"
            },
            {
              "internalType": "uint256",
              "name": "adminSeqNum",
              "type": "uint256"
            },
            {
              "internalType": "uint256",
              "name": "agentSeqNum",
              "type": "uint256"
            }
          ],
          "internalType": "struct SessionManager.Session",
          "name": "",
          "type": "tuple"
        }
      ],
      "stateMutability": "view",
      "type": "function"
    },
    {
      "inputs": [
        {
          "internalType": "bytes",
          "name": "publicKey",
          "type": "bytes"
        }
      ],
      "name": "registerAgent",
      "outputs": [],
      "stateMutability": "nonpayable",
      "type": "function"
    },
    {
      "inputs": [
        {
          "internalType": "bytes32",
          "name": "sessionId",
          "type": "bytes32"
        },
        {
          "internalType": "bytes",
          "name": "encryptedPayload",
          "type": "bytes"
        },
        {
          "internalType": "uint256",
          "name": "sequenceNumber",
          "type": "uint256"
        }
      ],
      "name": "sendMessage",
      "outputs": [],
      "stateMutability": "nonpayable",
      "type": "function"
    },
    {
      "inputs": [
        {
          "internalType": "bytes32",
          "name": "",
          "type": "bytes32"
        },
        {
          "internalType": "uint256",
          "name": "",
          "type": "uint256"
        }
      ],
      "name": "sessionMessages",
      "outputs": [
        {
          "internalType": "address",
          "name": "sender",
          "type": "address"
        },
        {
          "internalType": "bytes",
          "name": "encryptedPayload",
          "type": "bytes"
        },
        {
          "internalType": "uint256",
          "name": "timestamp",
          "type": "uint256"
        },
        {
          "internalType": "uint256",
          "name": "sequenceNumber",
          "type": "uint256"
        },
        {
          "internalType": "bytes32",
          "name": "sessionId",
          "type": "bytes32"
        }
      ],
      "stateMutability": "view",
      "type": "function"
    },
    {
      "inputs": [
        {
          "internalType": "bytes32",
          "name": "",
          "type": "bytes32"
        }
      ],
      "name": "sessions",
      "outputs": [
        {
          "internalType": "bytes32",
          "name": "sessionId",
          "type": "bytes32"
        },
        {
          "internalType": "address",
          "name": "admin",
          "type": "address"
        },
        {
          "internalType": "address",
          "name": "agent",
          "type": "address"
        },
        {
          "internalType": "bool",
          "name": "active",
          "type": "bool"
        },
        {
          "internalType": "uint256",
          "name": "createdAt",
          "type": "uint256"
        },
        {
          "internalType": "uint256",
          "name": "lastActivity",
          "type": "uint256"
        },
        {
          "internalType": "uint256",
          "name": "adminSeqNum",
          "type": "uint256"
        },
        {
          "internalType": "uint256",
          "name": "agentSeqNum",
          "type": "uint256"
        }
      ],
      "stateMutability": "view",
      "type": "function"
    },
    {
      "inputs": [
        {
          "internalType": "bytes32",
          "name": "sessionId",
          "type": "bytes32"
        }
      ],
      "name": "terminateSession",
      "outputs": [],
      "stateMutability": "nonpayable",
      "type": "function"
    }
  ],
  "bytecode": "0x608060405234801561001057600080fd5b506115b8806100206000396000f3fe608060405234801561001057600080fd5b50600436106100f55760003560e01c80638d699acc11610097578063aee6203811610066578063aee62038146103d2578063d58e2cae146103e5578063db7263d2146103f8578063f80be4011461041857600080fd5b80638d699acc146103685780639005005d1461037b578063a0b046a81461038e578063a781a555146103b257600080fd5b80634254188c116100d35780634254188c1461026f5780636fd763f3146102905780637cb9f86b146102b05780637dbd2832146102c357600080fd5b8063314f3cfe146100fa57806339b240bd1461010f5780633ea3504a1461024f575b600080fd5b61010d6101083660046110ee565b61042b565b005b6101de61011d36600461113e565b6040805161010081018252600080825260208201819052918101829052606081018290526080810182905260a0810182905260c0810182905260e081019190915250600090815260208181526040918290208251610100810184528154815260018201546001600160a01b0390811693820193909352600282015492831693810193909352600160a01b90910460ff161515606083015260038101546080830152600481015460a0830152600581015460c08301526006015460e082015290565b60408051825181526020808401516001600160a01b03908116918301919091528383015116918101919091526060808301511515908201526080808301519082015260a0808301519082015260c0808301519082015260e09182015191810191909152610100015b60405180910390f35b61026261025d366004611173565b6106b6565b60405161024691906111db565b61028261027d366004611173565b610762565b604051908152602001610246565b6102a361029e366004611173565b610999565b60405161024691906111ee565b6102826102be366004611232565b610a04565b6103216102d136600461113e565b600060208190529081526040902080546001820154600283015460038401546004850154600586015460069096015494956001600160a01b039485169594841694600160a01b90940460ff169388565b604080519889526001600160a01b0397881660208a015295909616948701949094529115156060860152608085015260a084015260c083015260e082015261010001610246565b6102a3610376366004611173565b610a35565b61010d61038936600461113e565b610a9f565b6103a161039c36600461125c565b610bb9565b60405161024695949392919061127e565b6102826103c036600461113e565b60009081526001602052604090205490565b6102626103e0366004611173565b610c9b565b61010d6103f33660046112bf565b610d35565b61040b6104063660046112fc565b610de4565b6040516102469190611328565b610282610426366004611232565b61102f565b60008381526020819052604090206002810154600160a01b900460ff1661048e5760405162461bcd60e51b815260206004820152601260248201527153657373696f6e206e6f742061637469766560701b60448201526064015b60405180910390fd5b60018101546001600160a01b03163314806104b5575060028101546001600160a01b031633145b6105015760405162461bcd60e51b815260206004820152601f60248201527f4e6f7420617574686f72697a656420666f7220746869732073657373696f6e006044820152606401610485565b60018101546001600160a01b031633036105795760058101546105259060016113de565b821461056d5760405162461bcd60e51b815260206004820152601760248201527624b73b30b634b21039b2b8bab2b731b290373ab6b132b960491b6044820152606401610485565b600581018290556105d9565b60068101546105899060016113de565b82146105d15760405162461bcd60e51b815260206004820152601760248201527624b73b30b634b21039b2b8bab2b731b290373ab6b132b960491b6044820152606401610485565b600681018290555b6040805160a0810182523381526020808201868152428385015260608301869052608083018890526000888152600180845294812080548087018255908252929020835160059093020180546001600160a01b0319166001600160a01b039093169290921782555191928392908201906106539082611480565b50604082810151600283015560608301516003830155608090920151600491820155429084015551838152339086907f75fd0efc5a2f31d8a767b97de6a7f5b89bb2ddd3168651fe4b1cbfc683074f679060200160405180910390a35050505050565b6001600160a01b03811660009081526004602052604090208054606091906106dd906113f7565b80601f0160208091040260200160405190810160405280929190818152602001828054610709906113f7565b80156107565780601f1061072b57610100808354040283529160200191610756565b820191906000526020600020905b81548152906001019060200180831161073957829003601f168201915b50505050509050919050565b60006001600160a01b0382166107b25760405162461bcd60e51b8152602060048201526015602482015274496e76616c6964206167656e74206164647265737360581b6044820152606401610485565b6001600160a01b038216600090815260046020526040812080546107d5906113f7565b90501161081b5760405162461bcd60e51b81526020600482015260146024820152731059d95b9d081b9bdd081c9959da5cdd195c995960621b6044820152606401610485565b6040805133606081811b6bffffffffffffffffffffffff199081166020808601919091529187901b166034840152426048808501829052855180860390910181526068850180875281519184019190912061016886018752808252608886018581526001600160a01b03808b1660a88901818152600160c88b0181815260e88c018981526101088d01998a5260006101288e01818152610148909e01818152898252818d528f82209a518b5597518a850180549189166001600160a01b031990921691909117905593516002808b01805494511515600160a01b026001600160a81b0319909516929098169190911792909217909555935160038089019190915597516004880155995160058701559251600690950194909455868252855287812080548089018255908252858220018290558281529284528683208054968701815583529282209094018290559351909384917f67633159e164099b4d8fc480543f50851374d3f06fa600a9a2ad650a4063a9019190a492915050565b6001600160a01b03811660009081526003602090815260409182902080548351818402810184019094528084526060939283018282801561075657602002820191906000526020600020905b8154815260200190600101908083116109e55750505050509050919050565b60026020528160005260406000208181548110610a2057600080fd5b90600052602060002001600091509150505481565b6001600160a01b03811660009081526002602090815260409182902080548351818402810184019094528084526060939283018282801561075657602002820191906000526020600020908154815260200190600101908083116109e55750505050509050919050565b60008181526020819052604090206002810154600160a01b900460ff16610b085760405162461bcd60e51b815260206004820152601a60248201527f53657373696f6e20616c7265616479207465726d696e617465640000000000006044820152606401610485565b60018101546001600160a01b0316331480610b2f575060028101546001600160a01b031633145b610b7b5760405162461bcd60e51b815260206004820152601f60248201527f4e6f7420617574686f72697a656420666f7220746869732073657373696f6e006044820152606401610485565b60028101805460ff60a01b1916905560405182907f32011eb4d473c598b3184e676ba0328492940aa14c410de604203f943af6b01390600090a25050565b60016020528160005260406000208181548110610bd557600080fd5b6000918252602090912060059091020180546001820180546001600160a01b039092169450919250610c06906113f7565b80601f0160208091040260200160405190810160405280929190818152602001828054610c32906113f7565b8015610c7f5780601f10610c5457610100808354040283529160200191610c7f565b820191906000526020600020905b815481529060010190602001808311610c6257829003601f168201915b5050505050908060020154908060030154908060040154905085565b60046020526000908152604090208054610cb4906113f7565b80601f0160208091040260200160405190810160405280929190818152602001828054610ce0906113f7565b8015610d2d5780601f10610d0257610100808354040283529160200191610d2d565b820191906000526020600020905b815481529060010190602001808311610d1057829003601f168201915b505050505081565b6000815111610d865760405162461bcd60e51b815260206004820152601a60248201527f5075626c6963206b65792063616e6e6f7420626520656d7074790000000000006044820152606401610485565b336000908152600460205260409020610d9f8282611480565b50336001600160a01b03167faee62fcd53998445552589ae811af1674edc65fb7fa592007e872cea523ab49e82604051610dd991906111db565b60405180910390a250565b60008381526001602052604090208054606091908410610e365760405162461bcd60e51b815260206004820152600d60248201526c092dcecc2d8d2c840d2dcc8caf609b1b6044820152606401610485565b6000610e4284866113de565b8254909150811115610e52575080545b6000610e5e8683611540565b905060008167ffffffffffffffff811115610e7b57610e7b61104b565b604051908082528060200260200182016040528015610eea57816020015b610ed76040518060a0016040528060006001600160a01b03168152602001606081526020016000815260200160008152602001600080191681525090565b815260200190600190039081610e995790505b50905060005b828110156110235784610f03828a6113de565b81548110610f1357610f13611553565b60009182526020918290206040805160a0810190915260059092020180546001600160a01b031682526001810180549293919291840191610f53906113f7565b80601f0160208091040260200160405190810160405280929190818152602001828054610f7f906113f7565b8015610fcc5780601f10610fa157610100808354040283529160200191610fcc565b820191906000526020600020905b815481529060010190602001808311610faf57829003601f168201915b50505050508152602001600282015481526020016003820154815260200160048201548152505082828151811061100557611005611553565b6020026020010181905250808061101b90611569565b915050610ef0565b50979650505050505050565b60036020528160005260406000208181548110610a2057600080fd5b634e487b7160e01b600052604160045260246000fd5b600082601f83011261107257600080fd5b813567ffffffffffffffff8082111561108d5761108d61104b565b604051601f8301601f19908116603f011681019082821181831017156110b5576110b561104b565b816040528381528660208588010111156110ce57600080fd5b836020870160208301376000602085830101528094505050505092915050565b60008060006060848603121561110357600080fd5b83359250602084013567ffffffffffffffff81111561112157600080fd5b61112d86828701611061565b925050604084013590509250925092565b60006020828403121561115057600080fd5b5035919050565b80356001600160a01b038116811461116e57600080fd5b919050565b60006020828403121561118557600080fd5b61118e82611157565b9392505050565b6000815180845260005b818110156111bb5760208185018101518683018201520161119f565b506000602082860101526020601f19601f83011685010191505092915050565b60208152600061118e6020830184611195565b6020808252825182820181905260009190848201906040850190845b818110156112265783518352928401929184019160010161120a565b50909695505050505050565b6000806040838503121561124557600080fd5b61124e83611157565b946020939093013593505050565b6000806040838503121561126f57600080fd5b50508035926020909101359150565b6001600160a01b038616815260a0602082018190526000906112a290830187611195565b604083019590955250606081019290925260809091015292915050565b6000602082840312156112d157600080fd5b813567ffffffffffffffff8111156112e857600080fd5b6112f484828501611061565b949350505050565b60008060006060848603121561131157600080fd5b505081359360208301359350604090920135919050565b60006020808301818452808551808352604092508286019150828160051b87010184880160005b838110156113ba57888303603f19018552815180516001600160a01b031684528781015160a08986018190529061138882870182611195565b838a0151878b01526060808501519088015260809384015193909601929092525050938601939086019060010161134f565b509098975050505050505050565b634e487b7160e01b600052601160045260246000fd5b808201808211156113f1576113f16113c8565b92915050565b600181811c9082168061140b57607f821691505b60208210810361142b57634e487b7160e01b600052602260045260246000fd5b50919050565b601f82111561147b57600081815260208120601f850160051c810160208610156114585750805b601f850160051c820191505b8181101561147757828155600101611464565b5050505b505050565b815167ffffffffffffffff81111561149a5761149a61104b565b6114ae816114a884546113f7565b84611431565b602080601f8311600181146114e357600084156114cb5750858301515b600019600386901b1c1916600185901b178555611477565b600085815260208120601f198616915b82811015611512578886015182559484019460019091019084016114f3565b50858210156115305787850151600019600388901b60f8161c191681555b5050505050600190811b01905550565b818103818111156113f1576113f16113c8565b634e487b7160e01b600052603260045260246000fd5b60006001820161157b5761157b6113c8565b506001019056fea2646970667358221220805cf3315ada5b2ebc225c33e3eaea4a6c8993b580d37f4a32ca6889257b894d64736f6c63430008140033",
  "linkReferences": {},
  "deployedLinkReferences": {}
}